{
  "_format": "hh-sol-artifact-1",
  "contractName": "PhygitalNFT",
  "sourceName": "contracts/PhygitalNFT.sol",
  "abi": [
    {
      "inputs": [],
      "stateMutability": "nonpayable",
      "type": "constructor"
    },
    {
      "inputs": [
        {
          "internalType": "address",
          "name": "sender",
          "type": "address"
        },
        {
          "internalType": "uint256",
          "name": "tokenId",
          "type": "uint256"
        },
        {
          "internalType": "address",
          "name": "owner",
          "type": "address"
        }
      ],
      "name": "ERC721IncorrectOwner",
      "type": "error"
    },
    {
      "inputs": [
        {
          "internalType": "address",
          "name": "operator",
          "type": "address"
        },
        {
          "internalType": "uint256",
          "name": "tokenId",
          "type": "uint256"
        }
      ],
      "name": "ERC721InsufficientApproval",
      "type": "error"
    },
    {
      "inputs": [
        {
          "internalType": "address",
          "name": "approver",
          "type": "address"
        }
      ],
      "name": "ERC721InvalidApprover",
      "type": "error"
    },
    {
      "inputs": [
        {
          "internalType": "address",
          "name": "operator",
          "type": "address"
        }
      ],
      "name": "ERC721InvalidOperator",
      "type": "error"
    },
    {
      "inputs": [
        {
          "internalType": "address",
          "name": "owner",
          "type": "address"
        }
      ],
      "name": "ERC721InvalidOwner",
      "type": "error"
    },
    {
      "inputs": [
        {
          "internalType": "address",
          "name": "receiver",
          "type": "address"
        }
      ],
      "name": "ERC721InvalidReceiver",
      "type": "error"
    },
    {
      "inputs": [
        {
          "internalType": "address",
          "name": "sender",
          "type": "address"
        }
      ],
      "name": "ERC721InvalidSender",
      "type": "error"
    },
    {
      "inputs": [
        {
          "internalType": "uint256",
          "name": "tokenId",
          "type": "uint256"
        }
      ],
      "name": "ERC721NonexistentToken",
      "type": "error"
    },
    {
      "inputs": [
        {
          "internalType": "address",
          "name": "owner",
          "type": "address"
        }
      ],
      "name": "OwnableInvalidOwner",
      "type": "error"
    },
    {
      "inputs": [
        {
          "internalType": "address",
          "name": "account",
          "type": "address"
        }
      ],
      "name": "OwnableUnauthorizedAccount",
      "type": "error"
    },
    {
      "anonymous": false,
      "inputs": [
        {
          "indexed": true,
          "internalType": "address",
          "name": "owner",
          "type": "address"
        },
        {
          "indexed": true,
          "internalType": "address",
          "name": "approved",
          "type": "address"
        },
        {
          "indexed": true,
          "internalType": "uint256",
          "name": "tokenId",
          "type": "uint256"
        }
      ],
      "name": "Approval",
      "type": "event"
    },
    {
      "anonymous": false,
      "inputs": [
        {
          "indexed": true,
          "internalType": "address",
          "name": "owner",
          "type": "address"
        },
        {
          "indexed": true,
          "internalType": "address",
          "name": "operator",
          "type": "address"
        },
        {
          "indexed": false,
          "internalType": "bool",
          "name": "approved",
          "type": "bool"
        }
      ],
      "name": "ApprovalForAll",
      "type": "event"
    },
    {
      "anonymous": false,
      "inputs": [
        {
          "indexed": true,
          "internalType": "uint256",
          "name": "tokenId",
          "type": "uint256"
        },
        {
          "indexed": false,
          "internalType": "bytes32",
          "name": "productHash",
          "type": "bytes32"
        },
        {
          "indexed": true,
          "internalType": "address",
          "name": "brand",
          "type": "address"
        }
      ],
      "name": "CertificateMinted",
      "type": "event"
    },
    {
      "anonymous": false,
      "inputs": [
        {
          "indexed": true,
          "internalType": "address",
          "name": "previousOwner",
          "type": "address"
        },
        {
          "indexed": true,
          "internalType": "address",
          "name": "newOwner",
          "type": "address"
        }
      ],
      "name": "OwnershipTransferred",
      "type": "event"
    },
    {
      "anonymous": false,
      "inputs": [
        {
          "indexed": true,
          "internalType": "address",
          "name": "from",
          "type": "address"
        },
        {
          "indexed": true,
          "internalType": "address",
          "name": "to",
          "type": "address"
        },
        {
          "indexed": true,
          "internalType": "uint256",
          "name": "tokenId",
          "type": "uint256"
        }
      ],
      "name": "Transfer",
      "type": "event"
    },
    {
      "inputs": [
        {
          "internalType": "address",
          "name": "to",
          "type": "address"
        },
        {
          "internalType": "uint256",
          "name": "tokenId",
          "type": "uint256"
        }
      ],
      "name": "approve",
      "outputs": [],
      "stateMutability": "nonpayable",
      "type": "function"
    },
    {
      "inputs": [
        {
          "internalType": "address",
          "name": "owner",
          "type": "address"
        }
      ],
      "name": "balanceOf",
      "outputs": [
        {
          "internalType": "uint256",
          "name": "",
          "type": "uint256"
        }
      ],
      "stateMutability": "view",
      "type": "function"
    },
    {
      "inputs": [
        {
          "internalType": "uint256",
          "name": "tokenId",
          "type": "uint256"
        }
      ],
      "name": "getApproved",
      "outputs": [
        {
          "internalType": "address",
          "name": "",
          "type": "address"
        }
      ],
      "stateMutability": "view",
      "type": "function"
    },
    {
      "inputs": [
        {
          "internalType": "bytes32",
          "name": "",
          "type": "bytes32"
        }
      ],
      "name": "hashToToken",
      "outputs": [
        {
          "internalType": "uint256",
          "name": "",
          "type": "uint256"
        }
      ],
      "stateMutability": "view",
      "type": "function"
    },
    {
      "inputs": [
        {
          "internalType": "address",
          "name": "owner",
          "type": "address"
        },
        {
          "internalType": "address",
          "name": "operator",
          "type": "address"
        }
      ],
      "name": "isApprovedForAll",
      "outputs": [
        {
          "internalType": "bool",
          "name": "",
          "type": "bool"
        }
      ],
      "stateMutability": "view",
      "type": "function"
    },
    {
      "inputs": [
        {
          "internalType": "address",
          "name": "brandWallet",
          "type": "address"
        },
        {
          "internalType": "bytes32",
          "name": "productHash",
          "type": "bytes32"
        }
      ],
      "name": "mintCertificate",
      "outputs": [
        {
          "internalType": "uint256",
          "name": "",
          "type": "uint256"
        }
      ],
      "stateMutability": "nonpayable",
      "type": "function"
    },
    {
      "inputs": [],
      "name": "name",
      "outputs": [
        {
          "internalType": "string",
          "name": "",
          "type": "string"
        }
      ],
      "stateMutability": "view",
      "type": "function"
    },
    {
      "inputs": [],
      "name": "owner",
      "outputs": [
        {
          "internalType": "address",
          "name": "",
          "type": "address"
        }
      ],
      "stateMutability": "view",
      "type": "function"
    },
    {
      "inputs": [
        {
          "internalType": "uint256",
          "name": "tokenId",
          "type": "uint256"
        }
      ],
      "name": "ownerOf",
      "outputs": [
        {
          "internalType": "address",
          "name": "",
          "type": "address"
        }
      ],
      "stateMutability": "view",
      "type": "function"
    },
    {
      "inputs": [
        {
          "internalType": "uint256",
          "name": "",
          "type": "uint256"
        }
      ],
      "name": "productHashes",
      "outputs": [
        {
          "internalType": "bytes32",
          "name": "",
          "type": "bytes32"
        }
      ],
      "stateMutability": "view",
      "type": "function"
    },
    {
      "inputs": [],
      "name": "renounceOwnership",
      "outputs": [],
      "stateMutability": "nonpayable",
      "type": "function"
    },
    {
      "inputs": [
        {
          "internalType": "address",
          "name": "from",
          "type": "address"
        },
        {
          "internalType": "address",
          "name": "to",
          "type": "address"
        },
        {
          "internalType": "uint256",
          "name": "tokenId",
          "type": "uint256"
        }
      ],
      "name": "safeTransferFrom",
      "outputs": [],
      "stateMutability": "nonpayable",
      "type": "function"
    },
    {
      "inputs": [
        {
          "internalType": "address",
          "name": "from",
          "type": "address"
        },
        {
          "internalType": "address",
          "name": "to",
          "type": "address"
        },
        {
          "internalType": "uint256",
          "name": "tokenId",
          "type": "uint256"
        },
        {
          "internalType": "bytes",
          "name": "data",
          "type": "bytes"
        }
      ],
      "name": "safeTransferFrom",
      "outputs": [],
      "stateMutability": "nonpayable",
      "type": "function"
    },
    {
      "inputs": [
        {
          "internalType": "address",
          "name": "operator",
          "type": "address"
        },
        {
          "internalType": "bool",
          "name": "approved",
          "type": "bool"
        }
      ],
      "name": "setApprovalForAll",
      "outputs": [],
      "stateMutability": "nonpayable",
      "type": "function"
    },
    {
      "inputs": [
        {
          "internalType": "bytes4",
          "name": "interfaceId",
          "type": "bytes4"
        }
      ],
      "name": "supportsInterface",
      "outputs": [
        {
          "internalType": "bool",
          "name": "",
          "type": "bool"
        }
      ],
      "stateMutability": "view",
      "type": "function"
    },
    {
      "inputs": [],
      "name": "symbol",
      "outputs": [
        {
          "internalType": "string",
          "name": "",
          "type": "string"
        }
      ],
      "stateMutability": "view",
      "type": "function"
    },
    {
      "inputs": [
        {
          "internalType": "uint256",
          "name": "tokenId",
          "type": "uint256"
        }
      ],
      "name": "tokenURI",
      "outputs": [
        {
          "internalType": "string",
          "name": "",
          "type": "string"
        }
      ],
      "stateMutability": "view",
      "type": "function"
    },
    {
      "inputs": [
        {
          "internalType": "address",
          "name": "from",
          "type": "address"
        },
        {
          "internalType": "address",
          "name": "to",
          "type": "address"
        },
        {
          "internalType": "uint256",
          "name": "tokenId",
          "type": "uint256"
        }
      ],
      "name": "transferFrom",
      "outputs": [],
      "stateMutability": "nonpayable",
      "type": "function"
    },
    {
      "inputs": [
        {
          "internalType": "address",
          "name": "newOwner",
          "type": "address"
        }
      ],
      "name": "transferOwnership",
      "outputs": [],
      "stateMutability": "nonpayable",
      "type": "function"
    },
    {
      "inputs": [
        {
          "internalType": "bytes32",
          "name": "productHash",
          "type": "bytes32"
        }
      ],
      "name": "verifyCertificate",
      "outputs": [
        {
          "internalType": "bool",
          "name": "isValid",
          "type": "bool"
        },
        {
          "internalType": "uint256",
          "name": "tokenId",
          "type": "uint256"
        },
        {
          "internalType": "address",
          "name": "currentOwner",
          "type": "address"
        }
      ],
      "stateMutability": "view",
      "type": "function"
    }
  ],
  "bytecode": "0x60806040523480156200001157600080fd5b50336040518060400160405280600c81526020017f506879676974616c4365727400000000000000000000000000000000000000008152506040518060400160405280600481526020017f5048594700000000000000000000000000000000000000000000000000000000815250816000908162000090919062000472565b508060019081620000a2919062000472565b505050600073ffffffffffffffffffffffffffffffffffffffff168173ffffffffffffffffffffffffffffffffffffffff16036200011a5760006040517f1e4fbdf70000000000000000000000000000000000000000000000000000000081526004016200011191906200059e565b60405180910390fd5b6200012b816200013260201b60201c565b50620005bb565b6000600660009054906101000a900473ffffffffffffffffffffffffffffffffffffffff16905081600660006101000a81548173ffffffffffffffffffffffffffffffffffffffff021916908373ffffffffffffffffffffffffffffffffffffffff1602179055508173ffffffffffffffffffffffffffffffffffffffff168173ffffffffffffffffffffffffffffffffffffffff167f8be0079c531659141344cd1fd0a4f28419497f9722a3daafe3b4186f6b6457e060405160405180910390a35050565b600081519050919050565b7f4e487b7100000000000000000000000000000000000000000000000000000000600052604160045260246000fd5b7f4e487b7100000000000000000000000000000000000000000000000000000000600052602260045260246000fd5b600060028204905060018216806200027a57607f821691505b60208210810362000290576200028f62000232565b5b50919050565b60008190508160005260206000209050919050565b60006020601f8301049050919050565b600082821b905092915050565b600060088302620002fa7fffffffffffffffffffffffffffffffffffffffffffffffffffffffffffffffff82620002bb565b620003068683620002bb565b95508019841693508086168417925050509392505050565b6000819050919050565b6000819050919050565b6000620003536200034d62000347846200031e565b62000328565b6200031e565b9050919050565b6000819050919050565b6200036f8362000332565b620003876200037e826200035a565b848454620002c8565b825550505050565b600090565b6200039e6200038f565b620003ab81848462000364565b505050565b5b81811015620003d357620003c760008262000394565b600181019050620003b1565b5050565b601f8211156200042257620003ec8162000296565b620003f784620002ab565b8101602085101562000407578190505b6200041f6200041685620002ab565b830182620003b0565b50505b505050565b600082821c905092915050565b6000620004476000198460080262000427565b1980831691505092915050565b600062000462838362000434565b9150826002028217905092915050565b6200047d82620001f8565b67ffffffffffffffff81111562000499576200049862000203565b5b620004a5825462000261565b620004b2828285620003d7565b600060209050601f831160018114620004ea5760008415620004d5578287015190505b620004e1858262000454565b86555062000551565b601f198416620004fa8662000296565b60005b828110156200052457848901518255600182019150602085019450602081019050620004fd565b8683101562000544578489015162000540601f89168262000434565b8355505b6001600288020188555050505b505050505050565b600073ffffffffffffffffffffffffffffffffffffffff82169050919050565b6000620005868262000559565b9050919050565b620005988162000579565b82525050565b6000602082019050620005b560008301846200058d565b92915050565b61246180620005cb6000396000f3fe608060405234801561001057600080fd5b506004361061012c5760003560e01c8063850c1768116100ad578063c87b56dd11610071578063c87b56dd14610343578063ca59225314610373578063e985e9c5146103a3578063f2fde38b146103d3578063f58e2eab146103ef5761012c565b8063850c17681461029d5780638da5cb5b146102cf57806395d89b41146102ed578063a22cb4651461030b578063b88d4fde146103275761012c565b806342842e0e116100f457806342842e0e146101e75780636352211e1461020357806370a0823114610233578063715018a61461026357806375c6ef741461026d5761012c565b806301ffc9a71461013157806306fdde0314610161578063081812fc1461017f578063095ea7b3146101af57806323b872dd146101cb575b600080fd5b61014b60048036038101906101469190611ac4565b61041f565b6040516101589190611b0c565b60405180910390f35b610169610501565b6040516101769190611bb7565b60405180910390f35b61019960048036038101906101949190611c0f565b610593565b6040516101a69190611c7d565b60405180910390f35b6101c960048036038101906101c49190611cc4565b6105af565b005b6101e560048036038101906101e09190611d04565b6105c5565b005b61020160048036038101906101fc9190611d04565b6106c7565b005b61021d60048036038101906102189190611c0f565b6106e7565b60405161022a9190611c7d565b60405180910390f35b61024d60048036038101906102489190611d57565b6106f9565b60405161025a9190611d93565b60405180910390f35b61026b6107b3565b005b61028760048036038101906102829190611de4565b6107c7565b6040516102949190611d93565b60405180910390f35b6102b760048036038101906102b29190611de4565b6107df565b6040516102c693929190611e11565b60405180910390f35b6102d761082c565b6040516102e49190611c7d565b60405180910390f35b6102f5610856565b6040516103029190611bb7565b60405180910390f35b61032560048036038101906103209190611e74565b6108e8565b005b610341600480360381019061033c9190611fe9565b6108fe565b005b61035d60048036038101906103589190611c0f565b610923565b60405161036a9190611bb7565b60405180910390f35b61038d6004803603810190610388919061206c565b61098c565b60405161039a9190611d93565b60405180910390f35b6103bd60048036038101906103b891906120ac565b610a9e565b6040516103ca9190611b0c565b60405180910390f35b6103ed60048036038101906103e89190611d57565b610b32565b005b61040960048036038101906104049190611c0f565b610bb8565b60405161041691906120fb565b60405180910390f35b60007f80ac58cd000000000000000000000000000000000000000000000000000000007bffffffffffffffffffffffffffffffffffffffffffffffffffffffff1916827bffffffffffffffffffffffffffffffffffffffffffffffffffffffff191614806104ea57507f5b5e139f000000000000000000000000000000000000000000000000000000007bffffffffffffffffffffffffffffffffffffffffffffffffffffffff1916827bffffffffffffffffffffffffffffffffffffffffffffffffffffffff1916145b806104fa57506104f982610bd0565b5b9050919050565b60606000805461051090612145565b80601f016020809104026020016040519081016040528092919081815260200182805461053c90612145565b80156105895780601f1061055e57610100808354040283529160200191610589565b820191906000526020600020905b81548152906001019060200180831161056c57829003601f168201915b5050505050905090565b600061059e82610c3a565b506105a882610cc2565b9050919050565b6105c182826105bc610cff565b610d07565b5050565b600073ffffffffffffffffffffffffffffffffffffffff168273ffffffffffffffffffffffffffffffffffffffff16036106375760006040517f64a0ae9200000000000000000000000000000000000000000000000000000000815260040161062e9190611c7d565b60405180910390fd5b600061064b8383610646610cff565b610d19565b90508373ffffffffffffffffffffffffffffffffffffffff168173ffffffffffffffffffffffffffffffffffffffff16146106c1578382826040517f64283d7b0000000000000000000000000000000000000000000000000000000081526004016106b893929190612176565b60405180910390fd5b50505050565b6106e2838383604051806020016040528060008152506108fe565b505050565b60006106f282610c3a565b9050919050565b60008073ffffffffffffffffffffffffffffffffffffffff168273ffffffffffffffffffffffffffffffffffffffff160361076c5760006040517f89c62b640000000000000000000000000000000000000000000000000000000081526004016107639190611c7d565b60405180910390fd5b600360008373ffffffffffffffffffffffffffffffffffffffff1673ffffffffffffffffffffffffffffffffffffffff168152602001908152602001600020549050919050565b6107bb610f33565b6107c56000610fba565b565b60096020528060005260406000206000915090505481565b60008060006009600085815260200190815260200160002054915060008203610812576000806000925092509250610825565b60018261081e846106e7565b9250925092505b9193909250565b6000600660009054906101000a900473ffffffffffffffffffffffffffffffffffffffff16905090565b60606001805461086590612145565b80601f016020809104026020016040519081016040528092919081815260200182805461089190612145565b80156108de5780601f106108b3576101008083540402835291602001916108de565b820191906000526020600020905b8154815290600101906020018083116108c157829003601f168201915b5050505050905090565b6108fa6108f3610cff565b8383611080565b5050565b6109098484846105c5565b61091d610914610cff565b858585856111ef565b50505050565b606061092e82610c3a565b5060006109396113a0565b905060008151116109595760405180602001604052806000815250610984565b80610963846113b7565b6040516020016109749291906121e9565b6040516020818303038152906040525b915050919050565b6000610996610f33565b60006009600084815260200190815260200160002054146109ec576040517f08c379a00000000000000000000000000000000000000000000000000000000081526004016109e390612259565b60405180910390fd5b600760008154809291906109ff906122a8565b919050555060006007549050610a158482611485565b8260086000838152602001908152602001600020819055508060096000858152602001908152602001600020819055508373ffffffffffffffffffffffffffffffffffffffff16817f4146296e9744d305898e131022cb357034515cbbfa7af7c3dc2c4e4f4f4a76c185604051610a8c91906120fb565b60405180910390a38091505092915050565b6000600560008473ffffffffffffffffffffffffffffffffffffffff1673ffffffffffffffffffffffffffffffffffffffff16815260200190815260200160002060008373ffffffffffffffffffffffffffffffffffffffff1673ffffffffffffffffffffffffffffffffffffffff16815260200190815260200160002060009054906101000a900460ff16905092915050565b610b3a610f33565b600073ffffffffffffffffffffffffffffffffffffffff168173ffffffffffffffffffffffffffffffffffffffff1603610bac5760006040517f1e4fbdf7000000000000000000000000000000000000000000000000000000008152600401610ba39190611c7d565b60405180910390fd5b610bb581610fba565b50565b60086020528060005260406000206000915090505481565b60007f01ffc9a7000000000000000000000000000000000000000000000000000000007bffffffffffffffffffffffffffffffffffffffffffffffffffffffff1916827bffffffffffffffffffffffffffffffffffffffffffffffffffffffff1916149050919050565b600080610c468361157e565b9050600073ffffffffffffffffffffffffffffffffffffffff168173ffffffffffffffffffffffffffffffffffffffff1603610cb957826040517f7e273289000000000000000000000000000000000000000000000000000000008152600401610cb09190611d93565b60405180910390fd5b80915050919050565b60006004600083815260200190815260200160002060009054906101000a900473ffffffffffffffffffffffffffffffffffffffff169050919050565b600033905090565b610d1483838360016115bb565b505050565b600080610d258461157e565b9050600073ffffffffffffffffffffffffffffffffffffffff168373ffffffffffffffffffffffffffffffffffffffff1614610d6757610d66818486611780565b5b600073ffffffffffffffffffffffffffffffffffffffff168173ffffffffffffffffffffffffffffffffffffffff1614610df857610da96000856000806115bb565b6001600360008373ffffffffffffffffffffffffffffffffffffffff1673ffffffffffffffffffffffffffffffffffffffff168152602001908152602001600020600082825403925050819055505b600073ffffffffffffffffffffffffffffffffffffffff168573ffffffffffffffffffffffffffffffffffffffff1614610e7b576001600360008773ffffffffffffffffffffffffffffffffffffffff1673ffffffffffffffffffffffffffffffffffffffff168152602001908152602001600020600082825401925050819055505b846002600086815260200190815260200160002060006101000a81548173ffffffffffffffffffffffffffffffffffffffff021916908373ffffffffffffffffffffffffffffffffffffffff160217905550838573ffffffffffffffffffffffffffffffffffffffff168273ffffffffffffffffffffffffffffffffffffffff167fddf252ad1be2c89b69c2b068fc378daa952ba7f163c4a11628f55a4df523b3ef60405160405180910390a4809150509392505050565b610f3b610cff565b73ffffffffffffffffffffffffffffffffffffffff16610f5961082c565b73ffffffffffffffffffffffffffffffffffffffff1614610fb857610f7c610cff565b6040517f118cdaa7000000000000000000000000000000000000000000000000000000008152600401610faf9190611c7d565b60405180910390fd5b565b6000600660009054906101000a900473ffffffffffffffffffffffffffffffffffffffff16905081600660006101000a81548173ffffffffffffffffffffffffffffffffffffffff021916908373ffffffffffffffffffffffffffffffffffffffff1602179055508173ffffffffffffffffffffffffffffffffffffffff168173ffffffffffffffffffffffffffffffffffffffff167f8be0079c531659141344cd1fd0a4f28419497f9722a3daafe3b4186f6b6457e060405160405180910390a35050565b600073ffffffffffffffffffffffffffffffffffffffff168273ffffffffffffffffffffffffffffffffffffffff16036110f157816040517f5b08ba180000000000000000000000000000000000000000000000000000000081526004016110e89190611c7d565b60405180910390fd5b80600560008573ffffffffffffffffffffffffffffffffffffffff1673ffffffffffffffffffffffffffffffffffffffff16815260200190815260200160002060008473ffffffffffffffffffffffffffffffffffffffff1673ffffffffffffffffffffffffffffffffffffffff16815260200190815260200160002060006101000a81548160ff0219169083151502179055508173ffffffffffffffffffffffffffffffffffffffff168373ffffffffffffffffffffffffffffffffffffffff167f17307eab39ab6107e8899845ad3d59bd9653f200f220920489ca2b5937696c31836040516111e29190611b0c565b60405180910390a3505050565b60008373ffffffffffffffffffffffffffffffffffffffff163b1115611399578273ffffffffffffffffffffffffffffffffffffffff1663150b7a02868685856040518563ffffffff1660e01b815260040161124e9493929190612345565b6020604051808303816000875af192505050801561128a57506040513d601f19601f8201168201806040525081019061128791906123a6565b60015b61130e573d80600081146112ba576040519150601f19603f3d011682016040523d82523d6000602084013e6112bf565b606091505b50600081510361130657836040517f64a0ae920000000000000000000000000000000000000000000000000000000081526004016112fd9190611c7d565b60405180910390fd5b805160208201fd5b63150b7a0260e01b7bffffffffffffffffffffffffffffffffffffffffffffffffffffffff1916817bffffffffffffffffffffffffffffffffffffffffffffffffffffffff19161461139757836040517f64a0ae9200000000000000000000000000000000000000000000000000000000815260040161138e9190611c7d565b60405180910390fd5b505b5050505050565b606060405180602001604052806000815250905090565b6060600060016113c684611844565b01905060008167ffffffffffffffff8111156113e5576113e4611ebe565b5b6040519080825280601f01601f1916602001820160405280156114175781602001600182028036833780820191505090505b509050600082602083010190505b60011561147a578080600190039150507f3031323334353637383961626364656600000000000000000000000000000000600a86061a8153600a858161146e5761146d6123d3565b5b04945060008503611425575b819350505050919050565b600073ffffffffffffffffffffffffffffffffffffffff168273ffffffffffffffffffffffffffffffffffffffff16036114f75760006040517f64a0ae920000000000000000000000000000000000000000000000000000000081526004016114ee9190611c7d565b60405180910390fd5b600061150583836000610d19565b9050600073ffffffffffffffffffffffffffffffffffffffff168173ffffffffffffffffffffffffffffffffffffffff16146115795760006040517f73c6ac6e0000000000000000000000000000000000000000000000000000000081526004016115709190611c7d565b60405180910390fd5b505050565b60006002600083815260200190815260200160002060009054906101000a900473ffffffffffffffffffffffffffffffffffffffff169050919050565b80806115f45750600073ffffffffffffffffffffffffffffffffffffffff168273ffffffffffffffffffffffffffffffffffffffff1614155b1561172857600061160484610c3a565b9050600073ffffffffffffffffffffffffffffffffffffffff168373ffffffffffffffffffffffffffffffffffffffff161415801561166f57508273ffffffffffffffffffffffffffffffffffffffff168173ffffffffffffffffffffffffffffffffffffffff1614155b801561168257506116808184610a9e565b155b156116c457826040517fa9fbf51f0000000000000000000000000000000000000000000000000000000081526004016116bb9190611c7d565b60405180910390fd5b811561172657838573ffffffffffffffffffffffffffffffffffffffff168273ffffffffffffffffffffffffffffffffffffffff167f8c5be1e5ebec7d5bd14f71427d1e84f3dd0314c0f7b2291e5b200ac8c7c3b92560405160405180910390a45b505b836004600085815260200190815260200160002060006101000a81548173ffffffffffffffffffffffffffffffffffffffff021916908373ffffffffffffffffffffffffffffffffffffffff16021790555050505050565b61178b838383611997565b61183f57600073ffffffffffffffffffffffffffffffffffffffff168373ffffffffffffffffffffffffffffffffffffffff160361180057806040517f7e2732890000000000000000000000000000000000000000000000000000000081526004016117f79190611d93565b60405180910390fd5b81816040517f177e802f000000000000000000000000000000000000000000000000000000008152600401611836929190612402565b60405180910390fd5b505050565b600080600090507a184f03e93ff9f4daa797ed6e38ed64bf6a1f01000000000000000083106118a2577a184f03e93ff9f4daa797ed6e38ed64bf6a1f0100000000000000008381611898576118976123d3565b5b0492506040810190505b6d04ee2d6d415b85acef810000000083106118df576d04ee2d6d415b85acef810000000083816118d5576118d46123d3565b5b0492506020810190505b662386f26fc10000831061190e57662386f26fc100008381611904576119036123d3565b5b0492506010810190505b6305f5e1008310611937576305f5e100838161192d5761192c6123d3565b5b0492506008810190505b612710831061195c576127108381611952576119516123d3565b5b0492506004810190505b6064831061197f5760648381611975576119746123d3565b5b0492506002810190505b600a831061198e576001810190505b80915050919050565b60008073ffffffffffffffffffffffffffffffffffffffff168373ffffffffffffffffffffffffffffffffffffffff1614158015611a4f57508273ffffffffffffffffffffffffffffffffffffffff168473ffffffffffffffffffffffffffffffffffffffff161480611a105750611a0f8484610a9e565b5b80611a4e57508273ffffffffffffffffffffffffffffffffffffffff16611a3683610cc2565b73ffffffffffffffffffffffffffffffffffffffff16145b5b90509392505050565b6000604051905090565b600080fd5b600080fd5b60007fffffffff0000000000000000000000000000000000000000000000000000000082169050919050565b611aa181611a6c565b8114611aac57600080fd5b50565b600081359050611abe81611a98565b92915050565b600060208284031215611ada57611ad9611a62565b5b6000611ae884828501611aaf565b91505092915050565b60008115159050919050565b611b0681611af1565b82525050565b6000602082019050611b216000830184611afd565b92915050565b600081519050919050565b600082825260208201905092915050565b60005b83811015611b61578082015181840152602081019050611b46565b60008484015250505050565b6000601f19601f8301169050919050565b6000611b8982611b27565b611b938185611b32565b9350611ba3818560208601611b43565b611bac81611b6d565b840191505092915050565b60006020820190508181036000830152611bd18184611b7e565b905092915050565b6000819050919050565b611bec81611bd9565b8114611bf757600080fd5b50565b600081359050611c0981611be3565b92915050565b600060208284031215611c2557611c24611a62565b5b6000611c3384828501611bfa565b91505092915050565b600073ffffffffffffffffffffffffffffffffffffffff82169050919050565b6000611c6782611c3c565b9050919050565b611c7781611c5c565b82525050565b6000602082019050611c926000830184611c6e565b92915050565b611ca181611c5c565b8114611cac57600080fd5b50565b600081359050611cbe81611c98565b92915050565b60008060408385031215611cdb57611cda611a62565b5b6000611ce985828601611caf565b9250506020611cfa85828601611bfa565b9150509250929050565b600080600060608486031215611d1d57611d1c611a62565b5b6000611d2b86828701611caf565b9350506020611d3c86828701611caf565b9250506040611d4d86828701611bfa565b9150509250925092565b600060208284031215611d6d57611d6c611a62565b5b6000611d7b84828501611caf565b91505092915050565b611d8d81611bd9565b82525050565b6000602082019050611da86000830184611d84565b92915050565b6000819050919050565b611dc181611dae565b8114611dcc57600080fd5b50565b600081359050611dde81611db8565b92915050565b600060208284031215611dfa57611df9611a62565b5b6000611e0884828501611dcf565b91505092915050565b6000606082019050611e266000830186611afd565b611e336020830185611d84565b611e406040830184611c6e565b949350505050565b611e5181611af1565b8114611e5c57600080fd5b50565b600081359050611e6e81611e48565b92915050565b60008060408385031215611e8b57611e8a611a62565b5b6000611e9985828601611caf565b9250506020611eaa85828601611e5f565b9150509250929050565b600080fd5b600080fd5b7f4e487b7100000000000000000000000000000000000000000000000000000000600052604160045260246000fd5b611ef682611b6d565b810181811067ffffffffffffffff82111715611f1557611f14611ebe565b5b80604052505050565b6000611f28611a58565b9050611f348282611eed565b919050565b600067ffffffffffffffff821115611f5457611f53611ebe565b5b611f5d82611b6d565b9050602081019050919050565b82818337600083830152505050565b6000611f8c611f8784611f39565b611f1e565b905082815260208101848484011115611fa857611fa7611eb9565b5b611fb3848285611f6a565b509392505050565b600082601f830112611fd057611fcf611eb4565b5b8135611fe0848260208601611f79565b91505092915050565b6000806000806080858703121561200357612002611a62565b5b600061201187828801611caf565b945050602061202287828801611caf565b935050604061203387828801611bfa565b925050606085013567ffffffffffffffff81111561205457612053611a67565b5b61206087828801611fbb565b91505092959194509250565b6000806040838503121561208357612082611a62565b5b600061209185828601611caf565b92505060206120a285828601611dcf565b9150509250929050565b600080604083850312156120c3576120c2611a62565b5b60006120d185828601611caf565b92505060206120e285828601611caf565b9150509250929050565b6120f581611dae565b82525050565b600060208201905061211060008301846120ec565b92915050565b7f4e487b7100000000000000000000000000000000000000000000000000000000600052602260045260246000fd5b6000600282049050600182168061215d57607f821691505b6020821081036121705761216f612116565b5b50919050565b600060608201905061218b6000830186611c6e565b6121986020830185611d84565b6121a56040830184611c6e565b949350505050565b600081905092915050565b60006121c382611b27565b6121cd81856121ad565b93506121dd818560208601611b43565b80840191505092915050565b60006121f582856121b8565b915061220182846121b8565b91508190509392505050565b7f436572746966696361746520616c726561647920657869737473000000000000600082015250565b6000612243601a83611b32565b915061224e8261220d565b602082019050919050565b6000602082019050818103600083015261227281612236565b9050919050565b7f4e487b7100000000000000000000000000000000000000000000000000000000600052601160045260246000fd5b60006122b382611bd9565b91507fffffffffffffffffffffffffffffffffffffffffffffffffffffffffffffffff82036122e5576122e4612279565b5b600182019050919050565b600081519050919050565b600082825260208201905092915050565b6000612317826122f0565b61232181856122fb565b9350612331818560208601611b43565b61233a81611b6d565b840191505092915050565b600060808201905061235a6000830187611c6e565b6123676020830186611c6e565b6123746040830185611d84565b8181036060830152612386818461230c565b905095945050505050565b6000815190506123a081611a98565b92915050565b6000602082840312156123bc576123bb611a62565b5b60006123ca84828501612391565b91505092915050565b7f4e487b7100000000000000000000000000000000000000000000000000000000600052601260045260246000fd5b60006040820190506124176000830185611c6e565b6124246020830184611d84565b939250505056fea2646970667358221220d3740701f357a7bfa58e89a4ad89290bb91fac9984aecc6747a0865cbca5e5be64736f6c63430008140033",
  "linkReferences": {},
  "deployedLinkReferences": {}
}