{
  "_format": "hh-sol-artifact-1",
  "contractName": "PhygitalNFT",
  "sourceName": "contracts/PhygitalNFT.sol",
  "abi": [
    {
      "inputs": [],
      "stateMutability": "nonpayable",
      "type": "constructor"
    },
    {
      "inputs": [
        {
          "internalType": "address",
          "name": "sender",
          "type": "address"
        },
        {
          "internalType": "uint256",
          "name": "tokenId",
          "type": "uint256"
        },
        {
          "internalType": "address",
          "name": "owner",
          "type": "address"
        }
      ],
      "name": "ERC721IncorrectOwner",
      "type": "error"
    },
    {
      "inputs": [
        {
          "internalType": "address",
          "name": "operator",
          "type": "address"
        },
        {
          "internalType": "uint256",
          "name": "tokenId",
          "type": "uint256"
        }
      ],
      "name": "ERC721InsufficientApproval",
      "type": "error"
    },
    {
      "inputs": [
        {
          "internalType": "address",
          "name": "approver",
          "type": "address"
        }
      ],
      "name": "ERC721InvalidApprover",
      "type": "error"
    },
    {
      "inputs": [
        {
          "internalType": "address",
          "name": "operator",
          "type": "address"
        }
      ],
      "name": "ERC721InvalidOperator",
      "type": "error"
    },
    {
      "inputs": [
        {
          "internalType": "address",
          "name": "owner",
          "type": "address"
        }
      ],
      "name": "ERC721InvalidOwner",
      "type": "error"
    },
    {
      "inputs": [
        {
          "internalType": "address",
          "name": "receiver",
          "type": "address"
        }
      ],
      "name": "ERC721InvalidReceiver",
      "type": "error"
    },
    {
      "inputs": [
        {
          "internalType": "address",
          "name": "sender",
          "type": "address"
        }
      ],
      "name": "ERC721InvalidSender",
      "type": "error"
    },
    {
      "inputs": [
        {
          "internalType": "uint256",
          "name": "tokenId",
          "type": "uint256"
        }
      ],
      "name": "ERC721NonexistentToken",
      "type": "error"
    },
    {
      "inputs": [
        {
          "internalType": "address",
          "name": "owner",
          "type": "address"
        }
      ],
      "name": "OwnableInvalidOwner",
      "type": "error"
    },
    {
      "inputs": [
        {
          "internalType": "address",
          "name": "account",
          "type": "address"
        }
      ],
      "name": "OwnableUnauthorizedAccount",
      "type": "error"
    },
    {
      "anonymous": false,
      "inputs": [
        {
          "indexed": true,
          "internalType": "address",
          "name": "owner",
          "type": "address"
        },
        {
          "indexed": true,
          "internalType": "address",
          "name": "approved",
          "type": "address"
        },
        {
          "indexed": true,
          "internalType": "uint256",
          "name": "tokenId",
          "type": "uint256"
        }
      ],
      "name": "Approval",
      "type": "event"
    },
    {
      "anonymous": false,
      "inputs": [
        {
          "indexed": true,
          "internalType": "address",
          "name": "owner",
          "type": "address"
        },
        {
          "indexed": true,
          "internalType": "address",
          "name": "operator",
          "type": "address"
        },
        {
          "indexed": false,
          "internalType": "bool",
          "name": "approved",
          "type": "bool"
        }
      ],
      "name": "ApprovalForAll",
      "type": "event"
    },
    {
      "anonymous": false,
      "inputs": [
        {
          "indexed": true,
          "internalType": "uint256",
          "name": "tokenId",
          "type": "uint256"
        },
        {
          "indexed": false,
          "internalType": "bytes32",
          "name": "productHash",
          "type": "bytes32"
        },
        {
          "indexed": true,
          "internalType": "address",
          "name": "brand",
          "type": "address"
        }
      ],
      "name": "CertificateMinted",
      "type": "event"
    },
    {
      "anonymous": false,
      "inputs": [
        {
          "indexed": true,
          "internalType": "address",
          "name": "previousOwner",
          "type": "address"
        },
        {
          "indexed": true,
          "internalType": "address",
          "name": "newOwner",
          "type": "address"
        }
      ],
      "name": "OwnershipTransferred",
      "type": "event"
    },
    {
      "anonymous": false,
      "inputs": [
        {
          "indexed": true,
          "internalType": "uint256",
          "name": "tokenId",
          "type": "uint256"
        },
        {
          "indexed": true,
          "internalType": "address",
          "name": "from",
          "type": "address"
        },
        {
          "indexed": true,
          "internalType": "address",
          "name": "to",
          "type": "address"
        }
      ],
      "name": "OwnershipTransferred",
      "type": "event"
    },
    {
      "anonymous": false,
      "inputs": [
        {
          "indexed": true,
          "internalType": "address",
          "name": "from",
          "type": "address"
        },
        {
          "indexed": true,
          "internalType": "address",
          "name": "to",
          "type": "address"
        },
        {
          "indexed": true,
          "internalType": "uint256",
          "name": "tokenId",
          "type": "uint256"
        }
      ],
      "name": "Transfer",
      "type": "event"
    },
    {
      "inputs": [
        {
          "internalType": "address",
          "name": "to",
          "type": "address"
        },
        {
          "internalType": "uint256",
          "name": "tokenId",
          "type": "uint256"
        }
      ],
      "name": "approve",
      "outputs": [],
      "stateMutability": "nonpayable",
      "type": "function"
    },
    {
      "inputs": [
        {
          "internalType": "address",
          "name": "owner",
          "type": "address"
        }
      ],
      "name": "balanceOf",
      "outputs": [
        {
          "internalType": "uint256",
          "name": "",
          "type": "uint256"
        }
      ],
      "stateMutability": "view",
      "type": "function"
    },
    {
      "inputs": [
        {
          "internalType": "uint256",
          "name": "tokenId",
          "type": "uint256"
        }
      ],
      "name": "getApproved",
      "outputs": [
        {
          "internalType": "address",
          "name": "",
          "type": "address"
        }
      ],
      "stateMutability": "view",
      "type": "function"
    },
    {
      "inputs": [
        {
          "internalType": "bytes32",
          "name": "",
          "type": "bytes32"
        }
      ],
      "name": "hashToToken",
      "outputs": [
        {
          "internalType": "uint256",
          "name": "",
          "type": "uint256"
        }
      ],
      "stateMutability": "view",
      "type": "function"
    },
    {
      "inputs": [
        {
          "internalType": "address",
          "name": "owner",
          "type": "address"
        },
        {
          "internalType": "address",
          "name": "operator",
          "type": "address"
        }
      ],
      "name": "isApprovedForAll",
      "outputs": [
        {
          "internalType": "bool",
          "name": "",
          "type": "bool"
        }
      ],
      "stateMutability": "view",
      "type": "function"
    },
    {
      "inputs": [
        {
          "internalType": "address",
          "name": "brandWallet",
          "type": "address"
        },
        {
          "internalType": "bytes32",
          "name": "productHash",
          "type": "bytes32"
        }
      ],
      "name": "mintCertificate",
      "outputs": [
        {
          "internalType": "uint256",
          "name": "",
          "type": "uint256"
        }
      ],
      "stateMutability": "nonpayable",
      "type": "function"
    },
    {
      "inputs": [],
      "name": "name",
      "outputs": [
        {
          "internalType": "string",
          "name": "",
          "type": "string"
        }
      ],
      "stateMutability": "view",
      "type": "function"
    },
    {
      "inputs": [],
      "name": "owner",
      "outputs": [
        {
          "internalType": "address",
          "name": "",
          "type": "address"
        }
      ],
      "stateMutability": "view",
      "type": "function"
    },
    {
      "inputs": [
        {
          "internalType": "uint256",
          "name": "tokenId",
          "type": "uint256"
        }
      ],
      "name": "ownerOf",
      "outputs": [
        {
          "internalType": "address",
          "name": "",
          "type": "address"
        }
      ],
      "stateMutability": "view",
      "type": "function"
    },
    {
      "inputs": [
        {
          "internalType": "uint256",
          "name": "",
          "type": "uint256"
        }
      ],
      "name": "productHashes",
      "outputs": [
        {
          "internalType": "bytes32",
          "name": "",
          "type": "bytes32"
        }
      ],
      "stateMutability": "view",
      "type": "function"
    },
    {
      "inputs": [],
      "name": "renounceOwnership",
      "outputs": [],
      "stateMutability": "nonpayable",
      "type": "function"
    },
    {
      "inputs": [
        {
          "internalType": "address",
          "name": "from",
          "type": "address"
        },
        {
          "internalType": "address",
          "name": "to",
          "type": "address"
        },
        {
          "internalType": "uint256",
          "name": "tokenId",
          "type": "uint256"
        }
      ],
      "name": "safeTransferFrom",
      "outputs": [],
      "stateMutability": "nonpayable",
      "type": "function"
    },
    {
      "inputs": [
        {
          "internalType": "address",
          "name": "from",
          "type": "address"
        },
        {
          "internalType": "address",
          "name": "to",
          "type": "address"
        },
        {
          "internalType": "uint256",
          "name": "tokenId",
          "type": "uint256"
        },
        {
          "internalType": "bytes",
          "name": "data",
          "type": "bytes"
        }
      ],
      "name": "safeTransferFrom",
      "outputs": [],
      "stateMutability": "nonpayable",
      "type": "function"
    },
    {
      "inputs": [
        {
          "internalType": "address",
          "name": "operator",
          "type": "address"
        },
        {
          "internalType": "bool",
          "name": "approved",
          "type": "bool"
        }
      ],
      "name": "setApprovalForAll",
      "outputs": [],
      "stateMutability": "nonpayable",
      "type": "function"
    },
    {
      "inputs": [
        {
          "internalType": "bytes4",
          "name": "interfaceId",
          "type": "bytes4"
        }
      ],
      "name": "supportsInterface",
      "outputs": [
        {
          "internalType": "bool",
          "name": "",
          "type": "bool"
        }
      ],
      "stateMutability": "view",
      "type": "function"
    },
    {
      "inputs": [],
      "name": "symbol",
      "outputs": [
        {
          "internalType": "string",
          "name": "",
          "type": "string"
        }
      ],
      "stateMutability": "view",
      "type": "function"
    },
    {
      "inputs": [
        {
          "internalType": "uint256",
          "name": "tokenId",
          "type": "uint256"
        }
      ],
      "name": "tokenURI",
      "outputs": [
        {
          "internalType": "string",
          "name": "",
          "type": "string"
        }
      ],
      "stateMutability": "view",
      "type": "function"
    },
    {
      "inputs": [
        {
          "internalType": "address",
          "name": "from",
          "type": "address"
        },
        {
          "internalType": "address",
          "name": "to",
          "type": "address"
        },
        {
          "internalType": "uint256",
          "name": "tokenId",
          "type": "uint256"
        }
      ],
      "name": "transferFrom",
      "outputs": [],
      "stateMutability": "nonpayable",
      "type": "function"
    },
    {
      "inputs": [
        {
          "internalType": "uint256",
          "name": "tokenId",
          "type": "uint256"
        },
        {
          "internalType": "address",
          "name": "from",
          "type": "address"
        },
        {
          "internalType": "address",
          "name": "to",
          "type": "address"
        }
      ],
      "name": "transferOwnership",
      "outputs": [],
      "stateMutability": "nonpayable",
      "type": "function"
    },
    {
      "inputs": [
        {
          "internalType": "address",
          "name": "newOwner",
          "type": "address"
        }
      ],
      "name": "transferOwnership",
      "outputs": [],
      "stateMutability": "nonpayable",
      "type": "function"
    },
    {
      "inputs": [
        {
          "internalType": "bytes32",
          "name": "productHash",
          "type": "bytes32"
        }
      ],
      "name": "verifyCertificate",
      "outputs": [
        {
          "internalType": "bool",
          "name": "",
          "type": "bool"
        },
        {
          "internalType": "uint256",
          "name": "",
          "type": "uint256"
        },
        {
          "internalType": "address",
          "name": "",
          "type": "address"
        }
      ],
      "stateMutability": "view",
      "type": "function"
    }
  ],
  "bytecode": "0x60806040523480156200001157600080fd5b50336040518060400160405280600c81526020017f506879676974616c4365727400000000000000000000000000000000000000008152506040518060400160405280600481526020017f5048594700000000000000000000000000000000000000000000000000000000815250816000908162000090919062000472565b508060019081620000a2919062000472565b505050600073ffffffffffffffffffffffffffffffffffffffff168173ffffffffffffffffffffffffffffffffffffffff16036200011a5760006040517f1e4fbdf70000000000000000000000000000000000000000000000000000000081526004016200011191906200059e565b60405180910390fd5b6200012b816200013260201b60201c565b50620005bb565b6000600660009054906101000a900473ffffffffffffffffffffffffffffffffffffffff16905081600660006101000a81548173ffffffffffffffffffffffffffffffffffffffff021916908373ffffffffffffffffffffffffffffffffffffffff1602179055508173ffffffffffffffffffffffffffffffffffffffff168173ffffffffffffffffffffffffffffffffffffffff167f8be0079c531659141344cd1fd0a4f28419497f9722a3daafe3b4186f6b6457e060405160405180910390a35050565b600081519050919050565b7f4e487b7100000000000000000000000000000000000000000000000000000000600052604160045260246000fd5b7f4e487b7100000000000000000000000000000000000000000000000000000000600052602260045260246000fd5b600060028204905060018216806200027a57607f821691505b60208210810362000290576200028f62000232565b5b50919050565b60008190508160005260206000209050919050565b60006020601f8301049050919050565b600082821b905092915050565b600060088302620002fa7fffffffffffffffffffffffffffffffffffffffffffffffffffffffffffffffff82620002bb565b620003068683620002bb565b95508019841693508086168417925050509392505050565b6000819050919050565b6000819050919050565b6000620003536200034d62000347846200031e565b62000328565b6200031e565b9050919050565b6000819050919050565b6200036f8362000332565b620003876200037e826200035a565b848454620002c8565b825550505050565b600090565b6200039e6200038f565b620003ab81848462000364565b505050565b5b81811015620003d357620003c760008262000394565b600181019050620003b1565b5050565b601f8211156200042257620003ec8162000296565b620003f784620002ab565b8101602085101562000407578190505b6200041f6200041685620002ab565b830182620003b0565b50505b505050565b600082821c905092915050565b6000620004476000198460080262000427565b1980831691505092915050565b600062000462838362000434565b9150826002028217905092915050565b6200047d82620001f8565b67ffffffffffffffff81111562000499576200049862000203565b5b620004a5825462000261565b620004b2828285620003d7565b600060209050601f831160018114620004ea5760008415620004d5578287015190505b620004e1858262000454565b86555062000551565b601f198416620004fa8662000296565b60005b828110156200052457848901518255600182019150602085019450602081019050620004fd565b8683101562000544578489015162000540601f89168262000434565b8355505b6001600288020188555050505b505050505050565b600073ffffffffffffffffffffffffffffffffffffffff82169050919050565b6000620005868262000559565b9050919050565b620005988162000579565b82525050565b6000602082019050620005b560008301846200058d565b92915050565b61287b80620005cb6000396000f3fe608060405234801561001057600080fd5b50600436106101375760003560e01c8063850c1768116100b8578063b88d4fde1161007c578063b88d4fde1461034e578063c87b56dd1461036a578063ca5922531461039a578063e985e9c5146103ca578063f2fde38b146103fa578063f58e2eab1461041657610137565b8063850c1768146102a85780638da5cb5b146102da578063952388c9146102f857806395d89b4114610314578063a22cb4651461033257610137565b806342842e0e116100ff57806342842e0e146101f25780636352211e1461020e57806370a082311461023e578063715018a61461026e57806375c6ef741461027857610137565b806301ffc9a71461013c57806306fdde031461016c578063081812fc1461018a578063095ea7b3146101ba57806323b872dd146101d6575b600080fd5b61015660048036038101906101519190611db3565b610446565b6040516101639190611dfb565b60405180910390f35b610174610528565b6040516101819190611ea6565b60405180910390f35b6101a4600480360381019061019f9190611efe565b6105ba565b6040516101b19190611f6c565b60405180910390f35b6101d460048036038101906101cf9190611fb3565b6105d6565b005b6101f060048036038101906101eb9190611ff3565b6105ec565b005b61020c60048036038101906102079190611ff3565b6106ee565b005b61022860048036038101906102239190611efe565b61070e565b6040516102359190611f6c565b60405180910390f35b61025860048036038101906102539190612046565b610720565b6040516102659190612082565b60405180910390f35b6102766107da565b005b610292600480360381019061028d91906120d3565b6107ee565b60405161029f9190612082565b60405180910390f35b6102c260048036038101906102bd91906120d3565b610806565b6040516102d193929190612100565b60405180910390f35b6102e2610856565b6040516102ef9190611f6c565b60405180910390f35b610312600480360381019061030d9190612137565b610880565b005b61031c6109d8565b6040516103299190611ea6565b60405180910390f35b61034c600480360381019061034791906121b6565b610a6a565b005b6103686004803603810190610363919061232b565b610a80565b005b610384600480360381019061037f9190611efe565b610aa5565b6040516103919190611ea6565b60405180910390f35b6103b460048036038101906103af91906123ae565b610b0e565b6040516103c19190612082565b60405180910390f35b6103e460048036038101906103df91906123ee565b610c20565b6040516103f19190611dfb565b60405180910390f35b610414600480360381019061040f9190612046565b610cb4565b005b610430600480360381019061042b9190611efe565b610d3a565b60405161043d919061243d565b60405180910390f35b60007f80ac58cd000000000000000000000000000000000000000000000000000000007bffffffffffffffffffffffffffffffffffffffffffffffffffffffff1916827bffffffffffffffffffffffffffffffffffffffffffffffffffffffff1916148061051157507f5b5e139f000000000000000000000000000000000000000000000000000000007bffffffffffffffffffffffffffffffffffffffffffffffffffffffff1916827bffffffffffffffffffffffffffffffffffffffffffffffffffffffff1916145b80610521575061052082610d52565b5b9050919050565b60606000805461053790612487565b80601f016020809104026020016040519081016040528092919081815260200182805461056390612487565b80156105b05780601f10610585576101008083540402835291602001916105b0565b820191906000526020600020905b81548152906001019060200180831161059357829003601f168201915b5050505050905090565b60006105c582610dbc565b506105cf82610e44565b9050919050565b6105e882826105e3610e81565b610e89565b5050565b600073ffffffffffffffffffffffffffffffffffffffff168273ffffffffffffffffffffffffffffffffffffffff160361065e5760006040517f64a0ae920000000000000000000000000000000000000000000000000000000081526004016106559190611f6c565b60405180910390fd5b6000610672838361066d610e81565b610e9b565b90508373ffffffffffffffffffffffffffffffffffffffff168173ffffffffffffffffffffffffffffffffffffffff16146106e8578382826040517f64283d7b0000000000000000000000000000000000000000000000000000000081526004016106df939291906124b8565b60405180910390fd5b50505050565b61070983838360405180602001604052806000815250610a80565b505050565b600061071982610dbc565b9050919050565b60008073ffffffffffffffffffffffffffffffffffffffff168273ffffffffffffffffffffffffffffffffffffffff16036107935760006040517f89c62b6400000000000000000000000000000000000000000000000000000000815260040161078a9190611f6c565b60405180910390fd5b600360008373ffffffffffffffffffffffffffffffffffffffff1673ffffffffffffffffffffffffffffffffffffffff168152602001908152602001600020549050919050565b6107e26110b5565b6107ec600061113c565b565b60096020528060005260406000206000915090505481565b600080600080600960008681526020019081526020016000205490506000810361083b5760008060009350935093505061084f565b6001816108478361070e565b935093509350505b9193909250565b6000600660009054906101000a900473ffffffffffffffffffffffffffffffffffffffff16905090565b6108886110b5565b8173ffffffffffffffffffffffffffffffffffffffff166108a88461070e565b73ffffffffffffffffffffffffffffffffffffffff16146108fe576040517f08c379a00000000000000000000000000000000000000000000000000000000081526004016108f59061253b565b60405180910390fd5b600073ffffffffffffffffffffffffffffffffffffffff168173ffffffffffffffffffffffffffffffffffffffff160361096d576040517f08c379a0000000000000000000000000000000000000000000000000000000008152600401610964906125a7565b60405180910390fd5b610978828285611202565b8073ffffffffffffffffffffffffffffffffffffffff168273ffffffffffffffffffffffffffffffffffffffff16847f16b85f49bf01212961345d3016c9a531894accf62eb7680f2045d79185cc0ec060405160405180910390a4505050565b6060600180546109e790612487565b80601f0160208091040260200160405190810160405280929190818152602001828054610a1390612487565b8015610a605780601f10610a3557610100808354040283529160200191610a60565b820191906000526020600020905b815481529060010190602001808311610a4357829003601f168201915b5050505050905090565b610a7c610a75610e81565b838361136f565b5050565b610a8b8484846105ec565b610a9f610a96610e81565b858585856114de565b50505050565b6060610ab082610dbc565b506000610abb61168f565b90506000815111610adb5760405180602001604052806000815250610b06565b80610ae5846116a6565b604051602001610af6929190612603565b6040516020818303038152906040525b915050919050565b6000610b186110b5565b6000600960008481526020019081526020016000205414610b6e576040517f08c379a0000000000000000000000000000000000000000000000000000000008152600401610b6590612673565b60405180910390fd5b60076000815480929190610b81906126c2565b919050555060006007549050610b978482611774565b8260086000838152602001908152602001600020819055508060096000858152602001908152602001600020819055508373ffffffffffffffffffffffffffffffffffffffff16817f4146296e9744d305898e131022cb357034515cbbfa7af7c3dc2c4e4f4f4a76c185604051610c0e919061243d565b60405180910390a38091505092915050565b6000600560008473ffffffffffffffffffffffffffffffffffffffff1673ffffffffffffffffffffffffffffffffffffffff16815260200190815260200160002060008373ffffffffffffffffffffffffffffffffffffffff1673ffffffffffffffffffffffffffffffffffffffff16815260200190815260200160002060009054906101000a900460ff16905092915050565b610cbc6110b5565b600073ffffffffffffffffffffffffffffffffffffffff168173ffffffffffffffffffffffffffffffffffffffff1603610d2e5760006040517f1e4fbdf7000000000000000000000000000000000000000000000000000000008152600401610d259190611f6c565b60405180910390fd5b610d378161113c565b50565b60086020528060005260406000206000915090505481565b60007f01ffc9a7000000000000000000000000000000000000000000000000000000007bffffffffffffffffffffffffffffffffffffffffffffffffffffffff1916827bffffffffffffffffffffffffffffffffffffffffffffffffffffffff1916149050919050565b600080610dc88361186d565b9050600073ffffffffffffffffffffffffffffffffffffffff168173ffffffffffffffffffffffffffffffffffffffff1603610e3b57826040517f7e273289000000000000000000000000000000000000000000000000000000008152600401610e329190612082565b60405180910390fd5b80915050919050565b60006004600083815260200190815260200160002060009054906101000a900473ffffffffffffffffffffffffffffffffffffffff169050919050565b600033905090565b610e9683838360016118aa565b505050565b600080610ea78461186d565b9050600073ffffffffffffffffffffffffffffffffffffffff168373ffffffffffffffffffffffffffffffffffffffff1614610ee957610ee8818486611a6f565b5b600073ffffffffffffffffffffffffffffffffffffffff168173ffffffffffffffffffffffffffffffffffffffff1614610f7a57610f2b6000856000806118aa565b6001600360008373ffffffffffffffffffffffffffffffffffffffff1673ffffffffffffffffffffffffffffffffffffffff168152602001908152602001600020600082825403925050819055505b600073ffffffffffffffffffffffffffffffffffffffff168573ffffffffffffffffffffffffffffffffffffffff1614610ffd576001600360008773ffffffffffffffffffffffffffffffffffffffff1673ffffffffffffffffffffffffffffffffffffffff168152602001908152602001600020600082825401925050819055505b846002600086815260200190815260200160002060006101000a81548173ffffffffffffffffffffffffffffffffffffffff021916908373ffffffffffffffffffffffffffffffffffffffff160217905550838573ffffffffffffffffffffffffffffffffffffffff168273ffffffffffffffffffffffffffffffffffffffff167fddf252ad1be2c89b69c2b068fc378daa952ba7f163c4a11628f55a4df523b3ef60405160405180910390a4809150509392505050565b6110bd610e81565b73ffffffffffffffffffffffffffffffffffffffff166110db610856565b73ffffffffffffffffffffffffffffffffffffffff161461113a576110fe610e81565b6040517f118cdaa70000000000000000000000000000000000000000000000000000000081526004016111319190611f6c565b60405180910390fd5b565b6000600660009054906101000a900473ffffffffffffffffffffffffffffffffffffffff16905081600660006101000a81548173ffffffffffffffffffffffffffffffffffffffff021916908373ffffffffffffffffffffffffffffffffffffffff1602179055508173ffffffffffffffffffffffffffffffffffffffff168173ffffffffffffffffffffffffffffffffffffffff167f8be0079c531659141344cd1fd0a4f28419497f9722a3daafe3b4186f6b6457e060405160405180910390a35050565b600073ffffffffffffffffffffffffffffffffffffffff168273ffffffffffffffffffffffffffffffffffffffff16036112745760006040517f64a0ae9200000000000000000000000000000000000000000000000000000000815260040161126b9190611f6c565b60405180910390fd5b600061128283836000610e9b565b9050600073ffffffffffffffffffffffffffffffffffffffff168173ffffffffffffffffffffffffffffffffffffffff16036112f557816040517f7e2732890000000000000000000000000000000000000000000000000000000081526004016112ec9190612082565b60405180910390fd5b8373ffffffffffffffffffffffffffffffffffffffff168173ffffffffffffffffffffffffffffffffffffffff1614611369578382826040517f64283d7b000000000000000000000000000000000000000000000000000000008152600401611360939291906124b8565b60405180910390fd5b50505050565b600073ffffffffffffffffffffffffffffffffffffffff168273ffffffffffffffffffffffffffffffffffffffff16036113e057816040517f5b08ba180000000000000000000000000000000000000000000000000000000081526004016113d79190611f6c565b60405180910390fd5b80600560008573ffffffffffffffffffffffffffffffffffffffff1673ffffffffffffffffffffffffffffffffffffffff16815260200190815260200160002060008473ffffffffffffffffffffffffffffffffffffffff1673ffffffffffffffffffffffffffffffffffffffff16815260200190815260200160002060006101000a81548160ff0219169083151502179055508173ffffffffffffffffffffffffffffffffffffffff168373ffffffffffffffffffffffffffffffffffffffff167f17307eab39ab6107e8899845ad3d59bd9653f200f220920489ca2b5937696c31836040516114d19190611dfb565b60405180910390a3505050565b60008373ffffffffffffffffffffffffffffffffffffffff163b1115611688578273ffffffffffffffffffffffffffffffffffffffff1663150b7a02868685856040518563ffffffff1660e01b815260040161153d949392919061275f565b6020604051808303816000875af192505050801561157957506040513d601f19601f8201168201806040525081019061157691906127c0565b60015b6115fd573d80600081146115a9576040519150601f19603f3d011682016040523d82523d6000602084013e6115ae565b606091505b5060008151036115f557836040517f64a0ae920000000000000000000000000000000000000000000000000000000081526004016115ec9190611f6c565b60405180910390fd5b805160208201fd5b63150b7a0260e01b7bffffffffffffffffffffffffffffffffffffffffffffffffffffffff1916817bffffffffffffffffffffffffffffffffffffffffffffffffffffffff19161461168657836040517f64a0ae9200000000000000000000000000000000000000000000000000000000815260040161167d9190611f6c565b60405180910390fd5b505b5050505050565b606060405180602001604052806000815250905090565b6060600060016116b584611b33565b01905060008167ffffffffffffffff8111156116d4576116d3612200565b5b6040519080825280601f01601f1916602001820160405280156117065781602001600182028036833780820191505090505b509050600082602083010190505b600115611769578080600190039150507f3031323334353637383961626364656600000000000000000000000000000000600a86061a8153600a858161175d5761175c6127ed565b5b04945060008503611714575b819350505050919050565b600073ffffffffffffffffffffffffffffffffffffffff168273ffffffffffffffffffffffffffffffffffffffff16036117e65760006040517f64a0ae920000000000000000000000000000000000000000000000000000000081526004016117dd9190611f6c565b60405180910390fd5b60006117f483836000610e9b565b9050600073ffffffffffffffffffffffffffffffffffffffff168173ffffffffffffffffffffffffffffffffffffffff16146118685760006040517f73c6ac6e00000000000000000000000000000000000000000000000000000000815260040161185f9190611f6c565b60405180910390fd5b505050565b60006002600083815260200190815260200160002060009054906101000a900473ffffffffffffffffffffffffffffffffffffffff169050919050565b80806118e35750600073ffffffffffffffffffffffffffffffffffffffff168273ffffffffffffffffffffffffffffffffffffffff1614155b15611a175760006118f384610dbc565b9050600073ffffffffffffffffffffffffffffffffffffffff168373ffffffffffffffffffffffffffffffffffffffff161415801561195e57508273ffffffffffffffffffffffffffffffffffffffff168173ffffffffffffffffffffffffffffffffffffffff1614155b8015611971575061196f8184610c20565b155b156119b357826040517fa9fbf51f0000000000000000000000000000000000000000000000000000000081526004016119aa9190611f6c565b60405180910390fd5b8115611a1557838573ffffffffffffffffffffffffffffffffffffffff168273ffffffffffffffffffffffffffffffffffffffff167f8c5be1e5ebec7d5bd14f71427d1e84f3dd0314c0f7b2291e5b200ac8c7c3b92560405160405180910390a45b505b836004600085815260200190815260200160002060006101000a81548173ffffffffffffffffffffffffffffffffffffffff021916908373ffffffffffffffffffffffffffffffffffffffff16021790555050505050565b611a7a838383611c86565b611b2e57600073ffffffffffffffffffffffffffffffffffffffff168373ffffffffffffffffffffffffffffffffffffffff1603611aef57806040517f7e273289000000000000000000000000000000000000000000000000000000008152600401611ae69190612082565b60405180910390fd5b81816040517f177e802f000000000000000000000000000000000000000000000000000000008152600401611b2592919061281c565b60405180910390fd5b505050565b600080600090507a184f03e93ff9f4daa797ed6e38ed64bf6a1f0100000000000000008310611b91577a184f03e93ff9f4daa797ed6e38ed64bf6a1f0100000000000000008381611b8757611b866127ed565b5b0492506040810190505b6d04ee2d6d415b85acef81000000008310611bce576d04ee2d6d415b85acef81000000008381611bc457611bc36127ed565b5b0492506020810190505b662386f26fc100008310611bfd57662386f26fc100008381611bf357611bf26127ed565b5b0492506010810190505b6305f5e1008310611c26576305f5e1008381611c1c57611c1b6127ed565b5b0492506008810190505b6127108310611c4b576127108381611c4157611c406127ed565b5b0492506004810190505b60648310611c6e5760648381611c6457611c636127ed565b5b0492506002810190505b600a8310611c7d576001810190505b80915050919050565b60008073ffffffffffffffffffffffffffffffffffffffff168373ffffffffffffffffffffffffffffffffffffffff1614158015611d3e57508273ffffffffffffffffffffffffffffffffffffffff168473ffffffffffffffffffffffffffffffffffffffff161480611cff5750611cfe8484610c20565b5b80611d3d57508273ffffffffffffffffffffffffffffffffffffffff16611d2583610e44565b73ffffffffffffffffffffffffffffffffffffffff16145b5b90509392505050565b6000604051905090565b600080fd5b600080fd5b60007fffffffff0000000000000000000000000000000000000000000000000000000082169050919050565b611d9081611d5b565b8114611d9b57600080fd5b50565b600081359050611dad81611d87565b92915050565b600060208284031215611dc957611dc8611d51565b5b6000611dd784828501611d9e565b91505092915050565b60008115159050919050565b611df581611de0565b82525050565b6000602082019050611e106000830184611dec565b92915050565b600081519050919050565b600082825260208201905092915050565b60005b83811015611e50578082015181840152602081019050611e35565b60008484015250505050565b6000601f19601f8301169050919050565b6000611e7882611e16565b611e828185611e21565b9350611e92818560208601611e32565b611e9b81611e5c565b840191505092915050565b60006020820190508181036000830152611ec08184611e6d565b905092915050565b6000819050919050565b611edb81611ec8565b8114611ee657600080fd5b50565b600081359050611ef881611ed2565b92915050565b600060208284031215611f1457611f13611d51565b5b6000611f2284828501611ee9565b91505092915050565b600073ffffffffffffffffffffffffffffffffffffffff82169050919050565b6000611f5682611f2b565b9050919050565b611f6681611f4b565b82525050565b6000602082019050611f816000830184611f5d565b92915050565b611f9081611f4b565b8114611f9b57600080fd5b50565b600081359050611fad81611f87565b92915050565b60008060408385031215611fca57611fc9611d51565b5b6000611fd885828601611f9e565b9250506020611fe985828601611ee9565b9150509250929050565b60008060006060848603121561200c5761200b611d51565b5b600061201a86828701611f9e565b935050602061202b86828701611f9e565b925050604061203c86828701611ee9565b9150509250925092565b60006020828403121561205c5761205b611d51565b5b600061206a84828501611f9e565b91505092915050565b61207c81611ec8565b82525050565b60006020820190506120976000830184612073565b92915050565b6000819050919050565b6120b08161209d565b81146120bb57600080fd5b50565b6000813590506120cd816120a7565b92915050565b6000602082840312156120e9576120e8611d51565b5b60006120f7848285016120be565b91505092915050565b60006060820190506121156000830186611dec565b6121226020830185612073565b61212f6040830184611f5d565b949350505050565b6000806000606084860312156121505761214f611d51565b5b600061215e86828701611ee9565b935050602061216f86828701611f9e565b925050604061218086828701611f9e565b9150509250925092565b61219381611de0565b811461219e57600080fd5b50565b6000813590506121b08161218a565b92915050565b600080604083850312156121cd576121cc611d51565b5b60006121db85828601611f9e565b92505060206121ec858286016121a1565b9150509250929050565b600080fd5b600080fd5b7f4e487b7100000000000000000000000000000000000000000000000000000000600052604160045260246000fd5b61223882611e5c565b810181811067ffffffffffffffff8211171561225757612256612200565b5b80604052505050565b600061226a611d47565b9050612276828261222f565b919050565b600067ffffffffffffffff82111561229657612295612200565b5b61229f82611e5c565b9050602081019050919050565b82818337600083830152505050565b60006122ce6122c98461227b565b612260565b9050828152602081018484840111156122ea576122e96121fb565b5b6122f58482856122ac565b509392505050565b600082601f830112612312576123116121f6565b5b81356123228482602086016122bb565b91505092915050565b6000806000806080858703121561234557612344611d51565b5b600061235387828801611f9e565b945050602061236487828801611f9e565b935050604061237587828801611ee9565b925050606085013567ffffffffffffffff81111561239657612395611d56565b5b6123a2878288016122fd565b91505092959194509250565b600080604083850312156123c5576123c4611d51565b5b60006123d385828601611f9e565b92505060206123e4858286016120be565b9150509250929050565b6000806040838503121561240557612404611d51565b5b600061241385828601611f9e565b925050602061242485828601611f9e565b9150509250929050565b6124378161209d565b82525050565b6000602082019050612452600083018461242e565b92915050565b7f4e487b7100000000000000000000000000000000000000000000000000000000600052602260045260246000fd5b6000600282049050600182168061249f57607f821691505b6020821081036124b2576124b1612458565b5b50919050565b60006060820190506124cd6000830186611f5d565b6124da6020830185612073565b6124e76040830184611f5d565b949350505050565b7f46726f6d2061646472657373206973206e6f7420746865206f776e6572000000600082015250565b6000612525601d83611e21565b9150612530826124ef565b602082019050919050565b6000602082019050818103600083015261255481612518565b9050919050565b7f43616e6e6f74207472616e7366657220746f207a65726f206164647265737300600082015250565b6000612591601f83611e21565b915061259c8261255b565b602082019050919050565b600060208201905081810360008301526125c081612584565b9050919050565b600081905092915050565b60006125dd82611e16565b6125e781856125c7565b93506125f7818560208601611e32565b80840191505092915050565b600061260f82856125d2565b915061261b82846125d2565b91508190509392505050565b7f416c7265616479206d696e746564000000000000000000000000000000000000600082015250565b600061265d600e83611e21565b915061266882612627565b602082019050919050565b6000602082019050818103600083015261268c81612650565b9050919050565b7f4e487b7100000000000000000000000000000000000000000000000000000000600052601160045260246000fd5b60006126cd82611ec8565b91507fffffffffffffffffffffffffffffffffffffffffffffffffffffffffffffffff82036126ff576126fe612693565b5b600182019050919050565b600081519050919050565b600082825260208201905092915050565b60006127318261270a565b61273b8185612715565b935061274b818560208601611e32565b61275481611e5c565b840191505092915050565b60006080820190506127746000830187611f5d565b6127816020830186611f5d565b61278e6040830185612073565b81810360608301526127a08184612726565b905095945050505050565b6000815190506127ba81611d87565b92915050565b6000602082840312156127d6576127d5611d51565b5b60006127e4848285016127ab565b91505092915050565b7f4e487b7100000000000000000000000000000000000000000000000000000000600052601260045260246000fd5b60006040820190506128316000830185611f5d565b61283e6020830184612073565b939250505056fea264697066735822122061b669e01f74ce8f6f655cff12836ed3e17e6c38aa42bf50ceb83a6e604d754164736f6c63430008140033",
  "linkReferences": {},
  "deployedLinkReferences": {}
}